:100000000C9434000C9451000C9451000C94510049
:100010000C9451000C9451000C9451000C9451001C
:100020000C9451000C9451000C9451000C948200DB
:100030000C9407010C9451000C9451000C94510045
:100040000C9451000C9451000C9413030C94510027
:100050000C9451000C9451000C9451000C945100DC
:100060000C9451000C94510011241FBECFEFD8E026
:10007000DEBFCDBF11E0A0E0B1E0EAEEF1E102C0E9
:1000800005900D92AC36B107D9F721E0ACE6B1E0AE
:1000900001C01D92AB3AB207E1F70E9463030C94D2
:1000A000F3080C940000E6E8F0E088E893E191831F
:1000B0008083808191819695879590938900809324
:1000C0008800808191819695879590938B0080938D
:1000D0008A00A0E8B0E08C9182608C93E1E8F0E0C7
:1000E0008081886180838C91806A8C93808182601A
:1000F0008083EFE6F0E0808182608083808184608D
:10010000808308951F920F920FB60F9211242F93A0
:100110003F934F935F936F937F938F939F93AF938F
:10012000BF93EF93FF93F894219B5FC0809195015B
:1001300090919601019690939601809395019F93DB
:100140008F938EE091E09F938F930E9430060F90E3
:100150000F900F900F902091950130919601809112
:100160009301909194012817390779F570919701BF
:10017000609198019091990180919A01272F362FD3
:10018000492F582FC901DA018093A1019093A20150
:10019000A093A301B093A4015F934F936F937F93B8
:1001A00086E191E09F938F930E9430061092960112
:1001B00010929501109294011092930121980F9042
:1001C0000F900F900F900F900F902091950130910C
:1001D00096018091930190919401821793072CF4DA
:1001E000109296011092950121987894FF91EF91C9
:1001F000BF91AF919F918F917F916F915F914F913F
:100200003F912F910F900FBE0F901F9018951F9246
:100210000F920FB60F9211242F933F934F935F933A
:100220006F937F938F939F93AF93BF93EF93FF93BE
:10023000F894229B5FC080916E0190916F010196AE
:1002400090936F0180936E019F938F938EE191E065
:100250009F938F930E9430060F900F900F900F90F6
:1002600020916E0130916F0180919F019091A001CA
:100270002817390779F570919B0160919C01909145
:100280009D0180919E01272F362F492F582FC9019C
:10029000DA0180938F0190939001A0939101B09324
:1002A00092015F934F936F937F9386E291E09F93C8
:1002B0008F930E94300610926F0110926E0110927F
:1002C000A00110929F0122980F900F900F900F9015
:1002D0000F900F9020916E0130916F0180919F01DE
:1002E0009091A001821793072CF410926F01109245
:1002F0006E0122987894FF91EF91BF91AF919F91F9
:100300008F917F916F915F914F913F912F910F90BE
:100310000FBE0F901F9018959091C00095FFFCCFD5
:100320008093C60090E080E008958091C00087FF30
:10033000FCCF8091C60090E00895E5EAF1E020E06E
:1003400031E0318320833383228310926D01109238
:100350006C019C0150E040E060E472E48FE090E0CA
:100360000E943304215031093093C5002093C4000A
:100370001092C00088E98093C1008EE08093C20093
:100380000895CF93DF9300D000D000D0CDB7DEB773
:1003900080917101843509F43FC18A3509F48AC01E
:1003A000853409F030C182E791E00E940A068D830E
:1003B0009E838D819E81092E000CAA0BBB0B898325
:1003C0009A83AB83BC83BC01CD010E94E80420E08A
:1003D00030E040EF50E469837A838B839C836981AA
:1003E0007A818B819C810E949D0520E030E040E075
:1003F0005EE369837A838B839C8369817A818B81B5
:100400009C810E949D0520918F0130919001409127
:1004100091015091920169837A838B839C836981D6
:100420007A818B819C810E9475049B01462F532FFA
:10043000682F792F40939B0150939C0160939D01FD
:1004400070939E01AD81BE81B7FF05C0B195A195A6
:10045000B109BE83AD834D815E815093A00140936D
:100460009F019F938F933F932F9380919A018F9336
:10047000809199018F93809198018F93809197013A
:100480008F938EE291E09F938F930E94300680912C
:10049000A0018F9380919F018F93809194018F93FE
:1004A000809193018F9380E491E09F938F930E94BA
:1004B0003006A4C082E791E00E940A068D839E83E5
:1004C0008D819E81092E000CAA0BBB0B89839A8318
:1004D000AB83BC83BC01CD010E94E80420E030E086
:1004E00040EF50E469837A838B839C8369817A81AE
:1004F0008B819C810E949D0520E030E040E05EE31E
:1005000069837A838B839C8369817A818B819C81C7
:100510000E949D052091A1013091A2014091A3016B
:100520005091A40169837A838B839C8369817A814A
:100530008B819C810E9475049B01462F532F682F4D
:10054000792F40939701509398016093990170938C
:100550009A01AD81BE81B7FF05C0B195A195B109E2
:10056000BE83AD834D815E8150939401409393018E
:1005700040919E014F9340919D014F9340919C016A
:100580004F9340919B014F939F938F933F932F9352
:100590008EE291E09F938F930E9430068091A0019C
:1005A0008F9380919F018F93809194018F9380917D
:1005B00093018F9380E491E09F938F930E94300684
:1005C000809192018F93809191018F9380919001FE
:1005D0008F9380918F018F938091A4018F9380914D
:1005E000A3018F938091A2018F938091A1018F939A
:1005F00081E591E09F938F930E9430060FB6F894A7
:10060000DEBF0FBECDBF26960FB6F894DEBF0FBE7D
:10061000CDBFDF91CF9108958091700191E089273E
:1006200080937001F0CF1F920F920FB60F9211249A
:100630002F933F934F935F936F937F938F939F93EA
:10064000AF93BF93CF93EF93FF9380E091E00E942D
:100650009501C82F082E000C990B0E944606CD303C
:10066000C1F0CA3301F510926D0110926C01FF9137
:10067000EF91CF91BF91AF919F918F917F916F91AA
:100680005F914F913F912F910F900FBE0F901F9050
:100690001895E0916C01F0916D01EF58FE4F1082BA
:1006A0000E94C101E4CF80916C0190916D019C0189
:1006B0002F5F3F4F30936D0120936C018F589E4FF9
:1006C000FC01C083D4CF00D000D0CDB7DEB7259ACF
:1006D000219A209A0E94530080E895E20E949D0191
:1006E00078941092700110929701109298011092D4
:1006F000990110929A0110929B0110929C01109204
:100700009D0110929E0110929401109293011092FB
:10071000A00110929F0110929601109295011092E3
:100720006F0110926E011092A1011092A20110921D
:10073000A3011092A40110928F01109290011092C7
:1007400091011092920180917001882309F47DC07B
:100750008091970190919801A0919901B0919A018F
:1007600089839A83AB83BC83C090A101D090A201FE
:10077000E090A301F090A401A7019601BC01CD0176
:100780000E9498051816B4F58091930190919401F8
:10079000892B31F0219A209A81E390E00E9446064D
:1007A00080919B0190919C01A0919D01B0919E012F
:1007B00089839A83AB83BC83C0908F01D0909001D2
:1007C000E0909101F0909201A7019601BC01CD014A
:1007D0000E94980518161CF580919F019091A00128
:1007E000892B09F4B0CF229A239A83E390E00E94E8
:1007F0004606A9CFA701960169817A818B819C81E8
:100800000E94E10487FFCCCF8091930190919401E5
:10081000892B31F2219A209882E390E0BFCFA70183
:10082000960169817A818B819C810E94E10487FF16
:100830008ACF80919F019091A001892B09F483CFE9
:10084000229A239884E390E0D2CF85B190E2892761
:1008500085B9AFEFB9E628E1A150B0402040E1F7FB
:1008600000C0000070CF052E97FB1EF400940E947C
:100870004A0457FD07D00E94520407FC03D04EF4EF
:100880000C944A0450954095309521953F4F4F4F19
:100890005F4F089590958095709561957F4F8F4F2C
:1008A0009F4F0895A1E21A2EAA1BBB1BFD010DC08C
:1008B000AA1FBB1FEE1FFF1FA217B307E407F50710
:1008C00020F0A21BB30BE40BF50B661F771F881FEC
:1008D000991F1A9469F760957095809590959B0182
:1008E000AC01BD01CF0108955058BB27AA270E9433
:1008F0008C040C945E050E94500538F00E94570548
:1009000020F039F49F3F19F426F40C944D050EF4B1
:10091000E095E7FB0C944705E92F0E946F0558F31B
:10092000BA17620773078407950720F079F4A6F5D4
:100930000C9491050EF4E0950B2EBA2FA02D0B010F
:10094000B90190010C01CA01A0011124FF27591B14
:1009500099F0593F50F4503E68F11A16F040A22F1A
:10096000232F342F4427585FF3CF4695379527958B
:10097000A795F0405395C9F77EF41F16BA0B620B8A
:10098000730B840BBAF09150A1F0FF0FBB1F661FD1
:10099000771F881FC2F70EC0BA0F621F731F841F14
:1009A00048F4879577956795B795F7959E3F08F03A
:1009B000B0CF9395880F08F09927EE0F97958795FC
:1009C00008950E94230508F481E00895E89409C081
:1009D00097FB3EF490958095709561957F4F8F4F72
:1009E0009F4F9923A9F0F92F96E9BB279395F69588
:1009F000879577956795B795F111F8CFFAF4BB0F06
:100A000011F460FF1BC06F5F7F4F8F4F9F4F16C069
:100A1000882311F096E911C0772321F09EE8872FF3
:100A2000762F05C0662371F096E8862F70E060E0AF
:100A30002AF09A95660F771F881FDAF7880F969528
:100A4000879597F90895990F0008550FAA0BE0E8CC
:100A5000FEEF16161706E807F907C0F01216130680
:100A6000E407F50798F0621B730B840B950B39F4C0
:100A70000A2661F0232B242B252B21F408950A2626
:100A800009F4A140A6958FEF811D811D089597F966
:100A90009F6780E870E060E008959FEF80EC089524
:100AA00000240A941616170618060906089500244D
:100AB0000A9412161306140605060895092E0394C7
:100AC000000C11F4882352F0BB0F40F4BF2B11F43B
:100AD00060FF04C06F5F7F4F8F4F9F4F089557FD9A
:100AE0009058440F551F59F05F3F71F04795880F9C
:100AF00097FB991F61F09F3F79F087950895121633
:100B000013061406551FF2CF4695F1DF08C01616DE
:100B100017061806991FF1CF86957105610508948F
:100B20000895E894BB2766277727CB0197F90895A6
:100B30000E94230508F48FEF08950E94B0050C94DD
:100B40005E050E94500538F00E94570520F095235D
:100B500011F00C9447050C944D0511240C9492054A
:100B60000E946F0570F3959FC1F3950F50E0551FDC
:100B7000629FF001729FBB27F00DB11D639FAA27F2
:100B8000F00DB11DAA1F649F6627B00DA11D661F41
:100B9000829F2227B00DA11D621F739FB00DA11D62
:100BA000621F839FA00D611D221F749F3327A00D1C
:100BB000611D231F849F600D211D822F762F6A2FB8
:100BC00011249F5750409AF0F1F088234AF0EE0F1D
:100BD000FF1FBB1F661F771F881F91505040A9F74A
:100BE0009E3F510580F00C9447050C9492055F3FA1
:100BF000E4F3983ED4F3869577956795B795F79586
:100C0000E7959F5FC1F7FE2B880F911D96958795FD
:100C100097F90895FC0188279927E89421912032BB
:100C2000E9F3293010F02E30C8F32B3241F02D3289
:100C300039F4689404C00E942806820F911D219106
:100C400020532A30C0F31EF4909581959F4F08954C
:100C50007AE0979F902D879F802D910D1124089504
:100C6000B0E0A0E0E6E3F6E00C94CC08AE014B5F08
:100C70005F4FFA0161917191AF018091A70190914D
:100C8000A8010E944D06E2E00C94E8086091A701DB
:100C90007091A8010E942E080895ABE0B0E0E3E552
:100CA000F6E00C94BC087C013B018A01FC01178230
:100CB0001682838181FFB9C19AE0292ECE01019667
:100CC0005C01F7019381F30193FD859193FF81917D
:100CD0003F01882309F446C1853239F493FD85919B
:100CE00093FF81913F01853229F4B70190E00E9482
:100CF0002E08E7CF912C412C512CFFE1F51538F04F
:100D00008B3209F188F4803201F1833221F157FCF2
:100D10003AC020ED280F2A3040F556FE1FC0929CA5
:100D2000200D1124922E06C08D3291F0803379F778
:100D3000689450F8F30193FD859193FF81913F01F1
:100D40008111DBCF20C0689451F8689452F8F2CF3B
:100D5000689453F8EFCF689454F8ECCF429C200D80
:100D60001124422E689455F8E5CF8E3229F456FCB2
:100D7000F9C0689456F8DECF8C3619F4689457F8A9
:100D8000D9CF8836B9F2982F9F7D95549330C0F013
:100D90008336A1F18337C1F1833509F05BC0F801D7
:100DA000C190D1908F01692D70E056FC02C06FEFA9
:100DB0007FEFC6010E9418084C01689457F80AC0DA
:100DC0000C5F1F4F2FE3298388248394912C6501A6
:100DD000E89457F853FC04C04814190409F018F5B6
:100DE000342C8114910431F5332009F46ACFB70112
:100DF00080E290E00E942E083A94F6CFF8018081BC
:100E000089830E5F1F4FE0CFF801C190D1908F0111
:100E1000692D70E056FC02C06FEF7FEFC6010E94A3
:100E200023084C01D5CFB70180E290E00E942E0844
:100E30004A94D2CFF60157FC859157FE81916F01FC
:100E4000B70190E00E942E0831103A94F1E08F1A19
:100E50009108C7CF843619F0893609F074C0F801BB
:100E600057FE6AC061917191819191918F01252DF9
:100E70002F76D22E97FF09C0909580957095619539
:100E80007F4F8F4F9F4F6894D7F82AE030E0A5013D
:100E90000E945E08C82ECA188C2C5D2CD6FE0CC091
:100EA000E89450F8C91440F4D4FE05C0D2FC03C045
:100EB000FD2DFE7E5F2E892C54FE8FC0FE01EC0DB1
:100EC000F11D8081803309F081C0252D297E522EAD
:100ED000852D8870382E53FC8FC050FE89C09C2C05
:100EE000841418F44C0C942C981854FE8BC0B70141
:100EF00080E390E00E942E0852FE09C088E790E04F
:100F000051FE02C088E590E0B7010E942E08C91486
:100F100008F484C0CA94D12C9FEFC91AD90ACA0C0C
:100F2000DB1CF60182916F01B70190E00E942E0850
:100F3000AC14BD04B1F758CF61917191072E000C2C
:100F4000880B990B93CFD52CE894D4F82AE030E0A5
:100F5000853739F1952D997FD92E8F3601F148F4D7
:100F60008835A9F0F701868197812B96E2E10C94F0
:100F7000D808803749F08837A9F7D4FE02C06894B2
:100F8000D2F820E130E00DC06894D4F8F6CF54FEDA
:100F900003C0E92FE660DE2E20E132E002C028E047
:100FA00030E0F801D7FE0DC061917191819191916E
:100FB0008F01A5010E945E08C82ECA18E894D7F8D0
:100FC0006BCF6191719190E080E0F2CF52FC02C052
:100FD00083947ECF839483947BCF852D867809F488
:100FE00077CFF6CFB70180E290E00E942E0883947D
:100FF0008414C0F3312C79CF342C3818841408F4BD
:1010000074CFF8CF852D867809F481CF8BE251FE1D
:1010100080E257FC8DE2B70190E077CFB70180E323
:1010200090E00E942E089A9472CF8FEF9FEF9DCF91
:10103000FC010590615070400110D8F780959095A3
:101040008E0F9F1F0895FC016150704001900110A8
:10105000D8F7809590958E0F9F1F08950F931F933B
:10106000CF93DF93182F092FEB018B8181FD09C0EE
:101070001FEF0FEF812F902FDF91CF911F910F91D5
:10108000089582FF14C02E813F818C819D81281795
:1010900039073CF4E881F981CF010196998388836F
:1010A00010838E819F8101969F838E83E3CFE88595
:1010B000F985812F0995892BA1F3DACFFA01AA27A7
:1010C000283051F1203181F1E8946F936E7F6E5F8B
:1010D0007F4F8F4F9F4FAF4FB1E03ED0B4E03CD039
:1010E000670F781F891F9A1FA11D680F791F8A1F1C
:1010F000911DA11D6A0F711D811D911DA11D20D083
:1011000009F468943F912AE0269F11243019305D3C
:101110003193DEF6CF010895462F4770405D41932D
:10112000B3E00FD0C9F7F6CF462F4F70405D4A337A
:1011300018F0495D31FD4052419302D0A9F7EACF42
:10114000B4E0A6959795879577956795BA95C9F771
:1011500000976105710508959B01AC010A2E069464
:101160005795479537952795BA95C9F7620F731F1D
:10117000841F951FA01D08952F923F924F925F925A
:101180006F927F928F929F92AF92BF92CF92DF9297
:10119000EF92FF920F931F93CF93DF93CDB7DEB7FC
:1011A000CA1BDB0B0FB6F894DEBF0FBECDBF099490
:1011B0002A88398848885F846E847D848C849B84E7
:1011C000AA84B984C884DF80EE80FD800C811B81F5
:1011D000AA81B981CE0FD11D0FB6F894DEBF0FBE24
:0A11E000CDBFED010895F894FFCF94
:1011EA0000000003000000008C01950100007061FE
:1011FA003A25640D0A003A413D25640D0A007062E1
:10120A003A25640D0A003A453D25640D0A00417AE3
:10121A00693A25662D2D2D456C653A25660D0A001D
:10122A0050413A2025642C2050453A2025640D0A65
:10123A0000417A69437572723A25662D2D2D456CE7
:0C124A0065437572723A25660D0A0000BB
:00000001FF
